{
    "contractName": "Example",
    "abi": [
        {
            "inputs": [
                {
                    "internalType": "uint256",
                    "name": "_number",
                    "type": "uint256"
                },
                {
                    "internalType": "string",
                    "name": "_str",
                    "type": "string"
                },
                {
                    "internalType": "uint256[]",
                    "name": "_data",
                    "type": "uint256[]"
                }
            ],
            "stateMutability": "nonpayable",
            "type": "constructor"
        },
        {
            "anonymous": false,
            "inputs": [
                {
                    "indexed": true,
                    "internalType": "address",
                    "name": "sender",
                    "type": "address"
                },
                {
                    "indexed": true,
                    "internalType": "uint256",
                    "name": "value",
                    "type": "uint256"
                }
            ],
            "name": "Receive",
            "type": "event"
        },
        {
            "anonymous": false,
            "inputs": [
                {
                    "indexed": true,
                    "internalType": "uint256",
                    "name": "number",
                    "type": "uint256"
                },
                {
                    "indexed": false,
                    "internalType": "string",
                    "name": "str",
                    "type": "string"
                },
                {
                    "indexed": false,
                    "internalType": "uint256[]",
                    "name": "data",
                    "type": "uint256[]"
                }
            ],
            "name": "SetData",
            "type": "event"
        },
        {
            "inputs": [
                {
                    "internalType": "uint256",
                    "name": "_number",
                    "type": "uint256"
                },
                {
                    "internalType": "string",
                    "name": "_str",
                    "type": "string"
                },
                {
                    "internalType": "uint256[]",
                    "name": "_data",
                    "type": "uint256[]"
                }
            ],
            "name": "setData",
            "outputs": [],
            "stateMutability": "nonpayable",
            "type": "function"
        },
        {
            "stateMutability": "payable",
            "type": "receive"
        }
    ],
    "bytecode": "608060405234801561001057600080fd5b506040516106bf3803806106bf83398101604081905261002f91610182565b6000839055600161004083826102e2565b50805161005490600290602084019061005d565b505050506103a1565b828054828255906000526020600020908101928215610098579160200282015b8281111561009857825182559160200191906001019061007d565b506100a49291506100a8565b5090565b5b808211156100a457600081556001016100a9565b634e487b7160e01b600052604160045260246000fd5b604051601f8201601f191681016001600160401b03811182821017156100fb576100fb6100bd565b604052919050565b600082601f83011261011457600080fd5b815160206001600160401b0382111561012f5761012f6100bd565b8160051b61013e8282016100d3565b928352848101820192828101908785111561015857600080fd5b83870192505b848310156101775782518252918301919083019061015e565b979650505050505050565b60008060006060848603121561019757600080fd5b8351602080860151919450906001600160401b03808211156101b857600080fd5b818701915087601f8301126101cc57600080fd5b8151818111156101de576101de6100bd565b6101f0601f8201601f191685016100d3565b818152898583860101111561020457600080fd5b60005b82811015610222578481018601518282018701528501610207565b5060009181019094015260408701519294508083111561024157600080fd5b505061024f86828701610103565b9150509250925092565b600181811c9082168061026d57607f821691505b60208210810361028d57634e487b7160e01b600052602260045260246000fd5b50919050565b601f8211156102dd57600081815260208120601f850160051c810160208610156102ba5750805b601f850160051c820191505b818110156102d9578281556001016102c6565b5050505b505050565b81516001600160401b038111156102fb576102fb6100bd565b61030f816103098454610259565b84610293565b602080601f831160018114610344576000841561032c5750858301515b600019600386901b1c1916600185901b1785556102d9565b600085815260208120601f198616915b8281101561037357888601518255948401946001909101908401610354565b50858210156103915787850151600019600388901b60f8161c191681555b5050505050600190811b01905550565b61030f806103b06000396000f3fe6080604052600436106100225760003560e01c806367b2da7c1461005b57600080fd5b3661005657604051349033907fd6717f327e0cb88b4a97a7f67a453e9258252c34937ccbdd86de7cb840e7def390600090a3005b600080fd5b34801561006757600080fd5b5061007b610076366004610183565b61007d565b005b827f6232ddf7d8869217bbbfd8e579974d7bb0bc8d9288be439c4f3ff20e24c3ba5b83836040516100af929190610243565b60405180910390a2505050565b634e487b7160e01b600052604160045260246000fd5b604051601f8201601f1916810167ffffffffffffffff811182821017156100fb576100fb6100bc565b604052919050565b600082601f83011261011457600080fd5b8135602067ffffffffffffffff821115610130576101306100bc565b8160051b61013f8282016100d2565b928352848101820192828101908785111561015957600080fd5b83870192505b848310156101785782358252918301919083019061015f565b979650505050505050565b60008060006060848603121561019857600080fd5b8335925060208085013567ffffffffffffffff808211156101b857600080fd5b818701915087601f8301126101cc57600080fd5b8135818111156101de576101de6100bc565b6101f0601f8201601f191685016100d2565b818152898583860101111561020457600080fd5b81858501868301376000918101909401529193506040860135918083111561022b57600080fd5b505061023986828701610103565b9150509250925092565b604081526000835180604084015260005b818110156102715760208187018101516060868401015201610254565b50600060608285010152601f19601f82011683019050606081016020606085840301818601528186518084526080850191508288019450600093505b808410156102cd57845182529382019360019390930192908201906102ad565b5097965050505050505056fea26469706673582212206a65a00bdf9c8bc350739ad6d0f961d49a7ae79fb83fd7afc9068069ac718c0f64736f6c63430008130033",
    "sourcePath": "c:/Users/Lenovo/vscode-projects/vscode-web3-dev/bu/contracts/example.sol",
    "compiler": {
        "name": "solc",
        "version": "0.8.19+commit.7dd6d404"
    },
    "functionHashes": {
        "setData(uint256,string,uint256[])": "67b2da7c"
    },
    "gasEstimates": {
        "creation": {
            "codeDepositCost": "156600",
            "executionCost": "infinite",
            "totalCost": "infinite"
        },
        "external": {
            "setData(uint256,string,uint256[])": "infinite"
        }
    }
}